{
  "contractName": "DDNS",
  "abi": [
    {
      "inputs": [],
      "payable": false,
      "stateMutability": "nonpayable",
      "type": "constructor"
    },
    {
      "anonymous": false,
      "inputs": [
        {
          "indexed": true,
          "internalType": "uint256",
          "name": "timestamp",
          "type": "uint256"
        },
        {
          "indexed": false,
          "internalType": "bytes",
          "name": "domainName",
          "type": "bytes"
        },
        {
          "indexed": false,
          "internalType": "bytes12",
          "name": "topLevel",
          "type": "bytes12"
        },
        {
          "indexed": false,
          "internalType": "bytes15",
          "name": "newIp",
          "type": "bytes15"
        }
      ],
      "name": "LogDomainNameEdited",
      "type": "event"
    },
    {
      "anonymous": false,
      "inputs": [
        {
          "indexed": true,
          "internalType": "uint256",
          "name": "timestamp",
          "type": "uint256"
        },
        {
          "indexed": false,
          "internalType": "bytes",
          "name": "domainName",
          "type": "bytes"
        },
        {
          "indexed": false,
          "internalType": "bytes12",
          "name": "topLevel",
          "type": "bytes12"
        }
      ],
      "name": "LogDomainNameRegistered",
      "type": "event"
    },
    {
      "anonymous": false,
      "inputs": [
        {
          "indexed": true,
          "internalType": "uint256",
          "name": "timestamp",
          "type": "uint256"
        },
        {
          "indexed": false,
          "internalType": "bytes",
          "name": "domainName",
          "type": "bytes"
        },
        {
          "indexed": false,
          "internalType": "bytes12",
          "name": "topLevel",
          "type": "bytes12"
        },
        {
          "indexed": true,
          "internalType": "address",
          "name": "owner",
          "type": "address"
        }
      ],
      "name": "LogDomainNameRenewed",
      "type": "event"
    },
    {
      "anonymous": false,
      "inputs": [
        {
          "indexed": true,
          "internalType": "uint256",
          "name": "timestamp",
          "type": "uint256"
        },
        {
          "indexed": false,
          "internalType": "bytes",
          "name": "domainName",
          "type": "bytes"
        },
        {
          "indexed": false,
          "internalType": "bytes12",
          "name": "topLevel",
          "type": "bytes12"
        },
        {
          "indexed": true,
          "internalType": "address",
          "name": "owner",
          "type": "address"
        },
        {
          "indexed": false,
          "internalType": "address",
          "name": "newOwner",
          "type": "address"
        }
      ],
      "name": "LogDomainNameTransferred",
      "type": "event"
    },
    {
      "anonymous": false,
      "inputs": [
        {
          "indexed": true,
          "internalType": "uint256",
          "name": "timestamp",
          "type": "uint256"
        },
        {
          "indexed": true,
          "internalType": "address",
          "name": "_owner",
          "type": "address"
        },
        {
          "indexed": false,
          "internalType": "uint256",
          "name": "amount",
          "type": "uint256"
        }
      ],
      "name": "LogPurchaseChangeReturned",
      "type": "event"
    },
    {
      "anonymous": false,
      "inputs": [
        {
          "indexed": true,
          "internalType": "uint256",
          "name": "timestamp",
          "type": "uint256"
        },
        {
          "indexed": false,
          "internalType": "bytes",
          "name": "domainName",
          "type": "bytes"
        },
        {
          "indexed": false,
          "internalType": "uint256",
          "name": "amountInWei",
          "type": "uint256"
        },
        {
          "indexed": false,
          "internalType": "uint256",
          "name": "expires",
          "type": "uint256"
        }
      ],
      "name": "LogReceipt",
      "type": "event"
    },
    {
      "anonymous": false,
      "inputs": [
        {
          "indexed": true,
          "internalType": "address",
          "name": "previousOwner",
          "type": "address"
        }
      ],
      "name": "OwnershipRenounced",
      "type": "event"
    },
    {
      "anonymous": false,
      "inputs": [
        {
          "indexed": true,
          "internalType": "address",
          "name": "previousOwner",
          "type": "address"
        },
        {
          "indexed": true,
          "internalType": "address",
          "name": "newOwner",
          "type": "address"
        }
      ],
      "name": "OwnershipTransferred",
      "type": "event"
    },
    {
      "constant": true,
      "inputs": [],
      "name": "BYTES_DEFAULT_VALUE",
      "outputs": [
        {
          "internalType": "bytes1",
          "name": "",
          "type": "bytes1"
        }
      ],
      "payable": false,
      "stateMutability": "view",
      "type": "function"
    },
    {
      "constant": true,
      "inputs": [],
      "name": "DOMAIN_EXPIRATION_DATE",
      "outputs": [
        {
          "internalType": "uint256",
          "name": "",
          "type": "uint256"
        }
      ],
      "payable": false,
      "stateMutability": "view",
      "type": "function"
    },
    {
      "constant": true,
      "inputs": [],
      "name": "DOMAIN_NAME_COST",
      "outputs": [
        {
          "internalType": "uint256",
          "name": "",
          "type": "uint256"
        }
      ],
      "payable": false,
      "stateMutability": "view",
      "type": "function"
    },
    {
      "constant": true,
      "inputs": [],
      "name": "DOMAIN_NAME_COST_SHORT_ADDITION",
      "outputs": [
        {
          "internalType": "uint256",
          "name": "",
          "type": "uint256"
        }
      ],
      "payable": false,
      "stateMutability": "view",
      "type": "function"
    },
    {
      "constant": true,
      "inputs": [],
      "name": "DOMAIN_NAME_EXPENSIVE_LENGTH",
      "outputs": [
        {
          "internalType": "uint8",
          "name": "",
          "type": "uint8"
        }
      ],
      "payable": false,
      "stateMutability": "view",
      "type": "function"
    },
    {
      "constant": true,
      "inputs": [],
      "name": "DOMAIN_NAME_MIN_LENGTH",
      "outputs": [
        {
          "internalType": "uint8",
          "name": "",
          "type": "uint8"
        }
      ],
      "payable": false,
      "stateMutability": "view",
      "type": "function"
    },
    {
      "constant": true,
      "inputs": [],
      "name": "TOP_LEVEL_DOMAIN_MIN_LENGTH",
      "outputs": [
        {
          "internalType": "uint8",
          "name": "",
          "type": "uint8"
        }
      ],
      "payable": false,
      "stateMutability": "view",
      "type": "function"
    },
    {
      "constant": false,
      "inputs": [
        {
          "internalType": "address payable",
          "name": "_owner",
          "type": "address"
        }
      ],
      "name": "destroy",
      "outputs": [],
      "payable": false,
      "stateMutability": "nonpayable",
      "type": "function"
    },
    {
      "constant": false,
      "inputs": [
        {
          "internalType": "address payable",
          "name": "_recipient",
          "type": "address"
        }
      ],
      "name": "destroyAndSend",
      "outputs": [],
      "payable": false,
      "stateMutability": "nonpayable",
      "type": "function"
    },
    {
      "constant": true,
      "inputs": [
        {
          "internalType": "bytes32",
          "name": "",
          "type": "bytes32"
        }
      ],
      "name": "domainNames",
      "outputs": [
        {
          "internalType": "bytes",
          "name": "name",
          "type": "bytes"
        },
        {
          "internalType": "bytes12",
          "name": "topLevel",
          "type": "bytes12"
        },
        {
          "internalType": "address",
          "name": "owner",
          "type": "address"
        },
        {
          "internalType": "bytes15",
          "name": "ip",
          "type": "bytes15"
        },
        {
          "internalType": "uint256",
          "name": "expires",
          "type": "uint256"
        }
      ],
      "payable": false,
      "stateMutability": "view",
      "type": "function"
    },
    {
      "constant": true,
      "inputs": [],
      "name": "isOwner",
      "outputs": [
        {
          "internalType": "bool",
          "name": "",
          "type": "bool"
        }
      ],
      "payable": false,
      "stateMutability": "view",
      "type": "function"
    },
    {
      "constant": true,
      "inputs": [],
      "name": "owner",
      "outputs": [
        {
          "internalType": "address",
          "name": "",
          "type": "address"
        }
      ],
      "payable": false,
      "stateMutability": "view",
      "type": "function"
    },
    {
      "constant": true,
      "inputs": [
        {
          "internalType": "address",
          "name": "",
          "type": "address"
        },
        {
          "internalType": "uint256",
          "name": "",
          "type": "uint256"
        }
      ],
      "name": "paymentReceipts",
      "outputs": [
        {
          "internalType": "bytes32",
          "name": "",
          "type": "bytes32"
        }
      ],
      "payable": false,
      "stateMutability": "view",
      "type": "function"
    },
    {
      "constant": true,
      "inputs": [
        {
          "internalType": "bytes32",
          "name": "",
          "type": "bytes32"
        }
      ],
      "name": "receiptDetails",
      "outputs": [
        {
          "internalType": "uint256",
          "name": "amountPaidWei",
          "type": "uint256"
        },
        {
          "internalType": "uint256",
          "name": "timestamp",
          "type": "uint256"
        },
        {
          "internalType": "uint256",
          "name": "expires",
          "type": "uint256"
        }
      ],
      "payable": false,
      "stateMutability": "view",
      "type": "function"
    },
    {
      "constant": false,
      "inputs": [],
      "name": "renounceOwnership",
      "outputs": [],
      "payable": false,
      "stateMutability": "nonpayable",
      "type": "function"
    },
    {
      "constant": false,
      "inputs": [
        {
          "internalType": "address",
          "name": "newOwner",
          "type": "address"
        }
      ],
      "name": "transferOwnership",
      "outputs": [],
      "payable": false,
      "stateMutability": "nonpayable",
      "type": "function"
    },
    {
      "constant": false,
      "inputs": [
        {
          "internalType": "bytes",
          "name": "domain",
          "type": "bytes"
        },
        {
          "internalType": "bytes12",
          "name": "topLevel",
          "type": "bytes12"
        },
        {
          "internalType": "bytes15",
          "name": "ip",
          "type": "bytes15"
        }
      ],
      "name": "register",
      "outputs": [],
      "payable": true,
      "stateMutability": "payable",
      "type": "function"
    },
    {
      "constant": false,
      "inputs": [
        {
          "internalType": "bytes",
          "name": "domain",
          "type": "bytes"
        },
        {
          "internalType": "bytes12",
          "name": "topLevel",
          "type": "bytes12"
        }
      ],
      "name": "renewDomainName",
      "outputs": [],
      "payable": true,
      "stateMutability": "payable",
      "type": "function"
    },
    {
      "constant": false,
      "inputs": [
        {
          "internalType": "bytes",
          "name": "domain",
          "type": "bytes"
        },
        {
          "internalType": "bytes12",
          "name": "topLevel",
          "type": "bytes12"
        },
        {
          "internalType": "bytes15",
          "name": "newIp",
          "type": "bytes15"
        }
      ],
      "name": "edit",
      "outputs": [],
      "payable": false,
      "stateMutability": "nonpayable",
      "type": "function"
    },
    {
      "constant": false,
      "inputs": [
        {
          "internalType": "bytes",
          "name": "domain",
          "type": "bytes"
        },
        {
          "internalType": "bytes12",
          "name": "topLevel",
          "type": "bytes12"
        },
        {
          "internalType": "address",
          "name": "newOwner",
          "type": "address"
        }
      ],
      "name": "transferDomain",
      "outputs": [],
      "payable": false,
      "stateMutability": "nonpayable",
      "type": "function"
    },
    {
      "constant": true,
      "inputs": [
        {
          "internalType": "bytes",
          "name": "domain",
          "type": "bytes"
        },
        {
          "internalType": "bytes12",
          "name": "topLevel",
          "type": "bytes12"
        }
      ],
      "name": "getIP",
      "outputs": [
        {
          "internalType": "bytes15",
          "name": "",
          "type": "bytes15"
        }
      ],
      "payable": false,
      "stateMutability": "view",
      "type": "function"
    },
    {
      "constant": true,
      "inputs": [
        {
          "internalType": "bytes",
          "name": "domain",
          "type": "bytes"
        }
      ],
      "name": "getPrice",
      "outputs": [
        {
          "internalType": "uint256",
          "name": "",
          "type": "uint256"
        }
      ],
      "payable": false,
      "stateMutability": "pure",
      "type": "function"
    },
    {
      "constant": true,
      "inputs": [],
      "name": "getReceiptList",
      "outputs": [
        {
          "internalType": "bytes32[]",
          "name": "",
          "type": "bytes32[]"
        }
      ],
      "payable": false,
      "stateMutability": "view",
      "type": "function"
    },
    {
      "constant": true,
      "inputs": [
        {
          "internalType": "bytes32",
          "name": "receiptKey",
          "type": "bytes32"
        }
      ],
      "name": "getReceipt",
      "outputs": [
        {
          "internalType": "uint256",
          "name": "",
          "type": "uint256"
        },
        {
          "internalType": "uint256",
          "name": "",
          "type": "uint256"
        },
        {
          "internalType": "uint256",
          "name": "",
          "type": "uint256"
        }
      ],
      "payable": false,
      "stateMutability": "view",
      "type": "function"
    },
    {
      "constant": true,
      "inputs": [
        {
          "internalType": "bytes",
          "name": "domain",
          "type": "bytes"
        },
        {
          "internalType": "bytes12",
          "name": "topLevel",
          "type": "bytes12"
        }
      ],
      "name": "getDomainHash",
      "outputs": [
        {
          "internalType": "bytes32",
          "name": "",
          "type": "bytes32"
        }
      ],
      "payable": false,
      "stateMutability": "pure",
      "type": "function"
    },
    {
      "constant": true,
      "inputs": [
        {
          "internalType": "bytes",
          "name": "domain",
          "type": "bytes"
        },
        {
          "internalType": "bytes12",
          "name": "topLevel",
          "type": "bytes12"
        }
      ],
      "name": "getReceiptKey",
      "outputs": [
        {
          "internalType": "bytes32",
          "name": "",
          "type": "bytes32"
        }
      ],
      "payable": false,
      "stateMutability": "view",
      "type": "function"
    },
    {
      "constant": false,
      "inputs": [],
      "name": "withdraw",
      "outputs": [],
      "payable": false,
      "stateMutability": "nonpayable",
      "type": "function"
    }
  ],
  "bytecode": "0x608060405234801561001057600080fd5b50336000806101000a81548173ffffffffffffffffffffffffffffffffffffffff021916908373ffffffffffffffffffffffffffffffffffffffff160217905550612771806100606000396000f3fe60806040526004361061019b5760003560e01c806373ff42a2116100ec578063b7a1ff8f1161008a578063f2fde38b11610064578063f2fde38b14610d8a578063f30b70e314610ddb578063f5074f4114610ee4578063fcecbb6114610f355761019b565b8063b7a1ff8f14610c8d578063d678ddf514610cea578063d8d5773314610d1b5761019b565b80638da5cb5b116100c65780638da5cb5b14610abf5780638f32d59b14610b16578063a79eebbc14610b45578063b4d9e77b14610bb15761019b565b806373ff42a21461086857806378129e19146108935780637fa594d31461099a5761019b565b80633ccfd60b11610159578063666916f811610133578063666916f8146106475780636ac98cdf146106785780636b4dd15814610775578063715018a6146108515761019b565b80633ccfd60b146105025780634e03255a146105195780634e6fcc14146106165761019b565b8062f55d9d146101a057806304f9c16d146101f1578063080f81ba14610260578063148d94171461028b5780631e932159146102b6578063316d2d78146103b0575b600080fd5b3480156101ac57600080fd5b506101ef600480360360208110156101c357600080fd5b81019080803573ffffffffffffffffffffffffffffffffffffffff169060200190929190505050610f92565b005b3480156101fd57600080fd5b5061024a6004803603604081101561021457600080fd5b81019080803573ffffffffffffffffffffffffffffffffffffffff16906020019092919080359060200190929190505050610fbc565b6040518082815260200191505060405180910390f35b34801561026c57600080fd5b50610275610fea565b6040518082815260200191505060405180910390f35b34801561029757600080fd5b506102a0610ff6565b6040518082815260200191505060405180910390f35b6103ae600480360360608110156102cc57600080fd5b81019080803590602001906401000000008111156102e957600080fd5b8201836020820111156102fb57600080fd5b8035906020019184600183028401116401000000008311171561031d57600080fd5b91908080601f016020809104026020016040519081016040528093929190818152602001838380828437600081840152601f19601f820116905080830192505050505050509192919290803573ffffffffffffffffffffffffffffffffffffffff19169060200190929190803570ffffffffffffffffffffffffffffffffff19169060200190929190505050611002565b005b3480156103bc57600080fd5b506103e9600480360360208110156103d357600080fd5b81019080803590602001909291905050506115ff565b60405180806020018673ffffffffffffffffffffffffffffffffffffffff191673ffffffffffffffffffffffffffffffffffffffff191681526020018573ffffffffffffffffffffffffffffffffffffffff1673ffffffffffffffffffffffffffffffffffffffff1681526020018470ffffffffffffffffffffffffffffffffff191670ffffffffffffffffffffffffffffffffff19168152602001838152602001828103825287818151815260200191508051906020019080838360005b838110156104c35780820151818401526020810190506104a8565b50505050905090810190601f1680156104f05780820380516001836020036101000a031916815260200191505b50965050505050505060405180910390f35b34801561050e57600080fd5b50610517611707565b005b34801561052557600080fd5b506106006004803603604081101561053c57600080fd5b810190808035906020019064010000000081111561055957600080fd5b82018360208201111561056b57600080fd5b8035906020019184600183028401116401000000008311171561058d57600080fd5b91908080601f016020809104026020016040519081016040528093929190818152602001838380828437600081840152601f19601f820116905080830192505050505050509192919290803573ffffffffffffffffffffffffffffffffffffffff19169060200190929190505050611761565b6040518082815260200191505060405180910390f35b34801561062257600080fd5b5061062b611852565b604051808260ff1660ff16815260200191505060405180910390f35b34801561065357600080fd5b5061065c611857565b604051808260ff1660ff16815260200191505060405180910390f35b34801561068457600080fd5b5061075f6004803603604081101561069b57600080fd5b81019080803590602001906401000000008111156106b857600080fd5b8201836020820111156106ca57600080fd5b803590602001918460018302840111640100000000831117156106ec57600080fd5b91908080601f016020809104026020016040519081016040528093929190818152602001838380828437600081840152601f19601f820116905080830192505050505050509192919290803573ffffffffffffffffffffffffffffffffffffffff1916906020019092919050505061185c565b6040518082815260200191505060405180910390f35b34801561078157600080fd5b5061083b6004803603602081101561079857600080fd5b81019080803590602001906401000000008111156107b557600080fd5b8201836020820111156107c757600080fd5b803590602001918460018302840111640100000000831117156107e957600080fd5b91908080601f016020809104026020016040519081016040528093929190818152602001838380828437600081840152601f19601f82011690508083019250505050505050919291929050505061190e565b6040518082815260200191505060405180910390f35b34801561085d57600080fd5b50610866611940565b005b34801561087457600080fd5b5061087d6119f8565b6040518082815260200191505060405180910390f35b34801561089f57600080fd5b50610998600480360360608110156108b657600080fd5b81019080803590602001906401000000008111156108d357600080fd5b8201836020820111156108e557600080fd5b8035906020019184600183028401116401000000008311171561090757600080fd5b91908080601f016020809104026020016040519081016040528093929190818152602001838380828437600081840152601f19601f820116905080830192505050505050509192919290803573ffffffffffffffffffffffffffffffffffffffff19169060200190929190803570ffffffffffffffffffffffffffffffffff19169060200190929190505050611a00565b005b3480156109a657600080fd5b50610a81600480360360408110156109bd57600080fd5b81019080803590602001906401000000008111156109da57600080fd5b8201836020820111156109ec57600080fd5b80359060200191846001830284011164010000000083111715610a0e57600080fd5b91908080601f016020809104026020016040519081016040528093929190818152602001838380828437600081840152601f19601f820116905080830192505050505050509192919290803573ffffffffffffffffffffffffffffffffffffffff19169060200190929190505050611c21565b604051808270ffffffffffffffffffffffffffffffffff191670ffffffffffffffffffffffffffffffffff1916815260200191505060405180910390f35b348015610acb57600080fd5b50610ad4611c5d565b604051808273ffffffffffffffffffffffffffffffffffffffff1673ffffffffffffffffffffffffffffffffffffffff16815260200191505060405180910390f35b348015610b2257600080fd5b50610b2b611c86565b604051808215151515815260200191505060405180910390f35b348015610b5157600080fd5b50610b5a611cdd565b6040518080602001828103825283818151815260200191508051906020019060200280838360005b83811015610b9d578082015181840152602081019050610b82565b505050509050019250505060405180910390f35b610c8b60048036036040811015610bc757600080fd5b8101908080359060200190640100000000811115610be457600080fd5b820183602082011115610bf657600080fd5b80359060200191846001830284011164010000000083111715610c1857600080fd5b91908080601f016020809104026020016040519081016040528093929190818152602001838380828437600081840152601f19601f820116905080830192505050505050509192919290803573ffffffffffffffffffffffffffffffffffffffff19169060200190929190505050611d72565b005b348015610c9957600080fd5b50610cc660048036036020811015610cb057600080fd5b8101908080359060200190929190505050612186565b60405180848152602001838152602001828152602001935050505060405180910390f35b348015610cf657600080fd5b50610cff6121b0565b604051808260ff1660ff16815260200191505060405180910390f35b348015610d2757600080fd5b50610d306121b5565b60405180827effffffffffffffffffffffffffffffffffffffffffffffffffffffffffffff19167effffffffffffffffffffffffffffffffffffffffffffffffffffffffffffff1916815260200191505060405180910390f35b348015610d9657600080fd5b50610dd960048036036020811015610dad57600080fd5b81019080803573ffffffffffffffffffffffffffffffffffffffff1690602001909291905050506121bd565b005b348015610de757600080fd5b50610ee260048036036060811015610dfe57600080fd5b8101908080359060200190640100000000811115610e1b57600080fd5b820183602082011115610e2d57600080fd5b80359060200191846001830284011164010000000083111715610e4f57600080fd5b91908080601f016020809104026020016040519081016040528093929190818152602001838380828437600081840152601f19601f820116905080830192505050505050509192919290803573ffffffffffffffffffffffffffffffffffffffff19169060200190929190803573ffffffffffffffffffffffffffffffffffffffff1690602001909291905050506121da565b005b348015610ef057600080fd5b50610f3360048036036020811015610f0757600080fd5b81019080803573ffffffffffffffffffffffffffffffffffffffff169060200190929190505050612468565b005b348015610f4157600080fd5b50610f6e60048036036020811015610f5857600080fd5b8101908080359060200190929190505050612492565b60405180848152602001838152602001828152602001935050505060405180910390f35b610f9a611c86565b610fa357600080fd5b8073ffffffffffffffffffffffffffffffffffffffff16ff5b60026020528160005260406000208181548110610fd557fe5b90600052602060002001600091509150505481565b670de0b6b3a764000081565b670de0b6b3a764000081565b82600560ff168151101561107e576040517f08c379a00000000000000000000000000000000000000000000000000000000081526004018080602001828103825260198152602001807f446f6d61696e206e616d6520697320746f6f2073686f72742e0000000000000081525060200191505060405180910390fd5b82600160ff16600c60ff1610156110fd576040517f08c379a000000000000000000000000000000000000000000000000000000000815260040180806020018281038252601e8152602001807f5468652070726f766964656420544c4420697320746f6f2073686f72742e000081525060200191505060405180910390fd5b8484600061110b838361185c565b905042600160008381526020019081526020016000206003015410611198576040517f08c379a000000000000000000000000000000000000000000000000000000000815260040180806020018281038252601d8152602001807f446f6d61696e206e616d65206973206e6f7420617661696c61626c652e00000081525060200191505060405180910390fd5b8760006111a48261190e565b90508034101561121c576040517f08c379a00000000000000000000000000000000000000000000000000000000081526004018080602001828103825260148152602001807f496e73756666696369656e7420616d6f756e742e00000000000000000000000081525060200191505060405180910390fd5b60006112288b8b61185c565b90506112326125e1565b6040518060a001604052808d81526020018c73ffffffffffffffffffffffffffffffffffffffff191681526020013373ffffffffffffffffffffffffffffffffffffffff1681526020018b70ffffffffffffffffffffffffffffffffff191681526020016301e1338042018152509050806001600084815260200190815260200160002060008201518160000190805190602001906112d2929190612651565b5060208201518160010160006101000a8154816bffffffffffffffffffffffff021916908360a01c0217905550604082015181600101600c6101000a81548173ffffffffffffffffffffffffffffffffffffffff021916908373ffffffffffffffffffffffffffffffffffffffff16021790555060608201518160020160006101000a8154816effffffffffffffffffffffffffffff021916908360881c02179055506080820151816003015590505061138a6126d1565b6040518060600160405280670de0b6b3a764000081526020014281526020016301e133804201815250905060006113c18e8e611761565b9050600260003373ffffffffffffffffffffffffffffffffffffffff1673ffffffffffffffffffffffffffffffffffffffff1681526020019081526020016000208190806001815401808255809150509060018203906000526020600020016000909192909190915055508160036000838152602001908152602001600020600082015181600001556020820151816001015560408201518160020155905050427f690691adf5dcf1256b88c5de131a8bbbf6cfa0dc88d43b4b8d52e326f0021b868f670de0b6b3a76400006301e1338042016040518080602001848152602001838152602001828103825285818151815260200191508051906020019080838360005b838110156114e05780820151818401526020810190506114c5565b50505050905090810190601f16801561150d5780820380516001836020036101000a031916815260200191505b5094505050505060405180910390a2427f866386c63f5535a3e914902c8867674abc47d0cf171c07e538ec40525fe8033b8f8f60405180806020018373ffffffffffffffffffffffffffffffffffffffff191673ffffffffffffffffffffffffffffffffffffffff19168152602001828103825284818151815260200191508051906020019080838360005b838110156115b4578082015181840152602081019050611599565b50505050905090810190601f1680156115e15780820380516001836020036101000a031916815260200191505b50935050505060405180910390a25050505050505050505050505050565b6001602052806000526040600020600091509050806000018054600181600116156101000203166002900480601f0160208091040260200160405190810160405280929190818152602001828054600181600116156101000203166002900480156116ab5780601f10611680576101008083540402835291602001916116ab565b820191906000526020600020905b81548152906001019060200180831161168e57829003601f168201915b5050505050908060010160009054906101000a900460a01b9080600101600c9054906101000a900473ffffffffffffffffffffffffffffffffffffffff16908060020160009054906101000a900460881b908060030154905085565b61170f611c86565b61171857600080fd5b3373ffffffffffffffffffffffffffffffffffffffff166108fc479081150290604051600060405180830381858888f1935050505015801561175e573d6000803e3d6000fd5b50565b6000828233426040516020018085805190602001908083835b6020831061179d578051825260208201915060208101905060208303925061177a565b6001836020036101000a0380198251168184511680821785525050505050509050018473ffffffffffffffffffffffffffffffffffffffff191673ffffffffffffffffffffffffffffffffffffffff19168152600c018373ffffffffffffffffffffffffffffffffffffffff1673ffffffffffffffffffffffffffffffffffffffff1660601b815260140182815260200194505050505060405160208183030381529060405280519060200120905092915050565b600881565b600581565b600082826040516020018083805190602001908083835b602083106118965780518252602082019150602081019050602083039250611873565b6001836020036101000a0380198251168184511680821785525050505050509050018273ffffffffffffffffffffffffffffffffffffffff191673ffffffffffffffffffffffffffffffffffffffff19168152600c019250505060405160208183030381529060405280519060200120905092915050565b6000600860ff168251101561192f57670de0b6b3a76400008001905061193b565b670de0b6b3a764000090505b919050565b611948611c86565b61195157600080fd5b6000809054906101000a900473ffffffffffffffffffffffffffffffffffffffff1673ffffffffffffffffffffffffffffffffffffffff167ff8df31144d9c2f0f6b59d69b8b98abd5459d07f2742c4df920b25aae33c6482060405160405180910390a260008060006101000a81548173ffffffffffffffffffffffffffffffffffffffff021916908373ffffffffffffffffffffffffffffffffffffffff160217905550565b6301e1338081565b82826000611a0e838361185c565b90503373ffffffffffffffffffffffffffffffffffffffff1660016000838152602001908152602001600020600101600c9054906101000a900473ffffffffffffffffffffffffffffffffffffffff1673ffffffffffffffffffffffffffffffffffffffff1614611aca576040517f08c379a00000000000000000000000000000000000000000000000000000000081526004018080602001828103825260258152602001806127186025913960400191505060405180910390fd5b6000611ad6878761185c565b9050846001600083815260200190815260200160002060020160006101000a8154816effffffffffffffffffffffffffffff021916908360881c0217905550427f26bdc0bb2172e6ed279fb9f78c96d130ce52f594c8cfedcc0aea541da98c598288888860405180806020018473ffffffffffffffffffffffffffffffffffffffff191673ffffffffffffffffffffffffffffffffffffffff191681526020018370ffffffffffffffffffffffffffffffffff191670ffffffffffffffffffffffffffffffffff19168152602001828103825285818151815260200191508051906020019080838360005b83811015611bdc578082015181840152602081019050611bc1565b50505050905090810190601f168015611c095780820380516001836020036101000a031916815260200191505b5094505050505060405180910390a250505050505050565b600080611c2e848461185c565b90506001600082815260200190815260200160002060020160009054906101000a900460881b91505092915050565b60008060009054906101000a900473ffffffffffffffffffffffffffffffffffffffff16905090565b60008060009054906101000a900473ffffffffffffffffffffffffffffffffffffffff1673ffffffffffffffffffffffffffffffffffffffff163373ffffffffffffffffffffffffffffffffffffffff1614905090565b6060600260003373ffffffffffffffffffffffffffffffffffffffff1673ffffffffffffffffffffffffffffffffffffffff168152602001908152602001600020805480602002602001604051908101604052809291908181526020018280548015611d6857602002820191906000526020600020905b815481526020019060010190808311611d54575b5050505050905090565b81816000611d80838361185c565b90503373ffffffffffffffffffffffffffffffffffffffff1660016000838152602001908152602001600020600101600c9054906101000a900473ffffffffffffffffffffffffffffffffffffffff1673ffffffffffffffffffffffffffffffffffffffff1614611e3c576040517f08c379a00000000000000000000000000000000000000000000000000000000081526004018080602001828103825260258152602001806127186025913960400191505060405180910390fd5b846000611e488261190e565b905080341015611ec0576040517f08c379a00000000000000000000000000000000000000000000000000000000081526004018080602001828103825260148152602001807f496e73756666696369656e7420616d6f756e742e00000000000000000000000081525060200191505060405180910390fd5b6000611ecc888861185c565b90506301e133806001600083815260200190815260200160002060030160008282540192505081905550611efe6126d1565b6040518060600160405280670de0b6b3a764000081526020014281526020016301e13380420181525090506000611f358a8a611761565b9050600260003373ffffffffffffffffffffffffffffffffffffffff1673ffffffffffffffffffffffffffffffffffffffff16815260200190815260200160002081908060018154018082558091505090600182039060005260206000200160009091929091909150555081600360008381526020019081526020016000206000820151816000015560208201518160010155604082015181600201559050503373ffffffffffffffffffffffffffffffffffffffff16427f4164715c0e5c59941e6e13d4801ec49371896676546912145e8325a848d7f4f58c8c60405180806020018373ffffffffffffffffffffffffffffffffffffffff191673ffffffffffffffffffffffffffffffffffffffff19168152602001828103825284818151815260200191508051906020019080838360005b83811015612084578082015181840152602081019050612069565b50505050905090810190601f1680156120b15780820380516001836020036101000a031916815260200191505b50935050505060405180910390a3427f690691adf5dcf1256b88c5de131a8bbbf6cfa0dc88d43b4b8d52e326f0021b868b670de0b6b3a76400006301e1338042016040518080602001848152602001838152602001828103825285818151815260200191508051906020019080838360005b8381101561213e578082015181840152602081019050612123565b50505050905090810190601f16801561216b5780820380516001836020036101000a031916815260200191505b5094505050505060405180910390a250505050505050505050565b60036020528060005260406000206000915090508060000154908060010154908060020154905083565b600181565b600060f81b81565b6121c5611c86565b6121ce57600080fd5b6121d7816124e9565b50565b828260006121e8838361185c565b90503373ffffffffffffffffffffffffffffffffffffffff1660016000838152602001908152602001600020600101600c9054906101000a900473ffffffffffffffffffffffffffffffffffffffff1673ffffffffffffffffffffffffffffffffffffffff16146122a4576040517f08c379a00000000000000000000000000000000000000000000000000000000081526004018080602001828103825260258152602001806127186025913960400191505060405180910390fd5b600073ffffffffffffffffffffffffffffffffffffffff168473ffffffffffffffffffffffffffffffffffffffff1614156122de57600080fd5b60006122ea878761185c565b90508460016000838152602001908152602001600020600101600c6101000a81548173ffffffffffffffffffffffffffffffffffffffff021916908373ffffffffffffffffffffffffffffffffffffffff1602179055503373ffffffffffffffffffffffffffffffffffffffff16427f4ae77a0d854d432937d6a090209418c3673044142d83c16c9745731194b8527089898960405180806020018473ffffffffffffffffffffffffffffffffffffffff191673ffffffffffffffffffffffffffffffffffffffff191681526020018373ffffffffffffffffffffffffffffffffffffffff1673ffffffffffffffffffffffffffffffffffffffff168152602001828103825285818151815260200191508051906020019080838360005b83811015612423578082015181840152602081019050612408565b50505050905090810190601f1680156124505780820380516001836020036101000a031916815260200191505b5094505050505060405180910390a350505050505050565b612470611c86565b61247957600080fd5b8073ffffffffffffffffffffffffffffffffffffffff16ff5b60008060006003600085815260200190815260200160002060000154600360008681526020019081526020016000206001015460036000878152602001908152602001600020600201549250925092509193909250565b600073ffffffffffffffffffffffffffffffffffffffff168173ffffffffffffffffffffffffffffffffffffffff16141561252357600080fd5b8073ffffffffffffffffffffffffffffffffffffffff166000809054906101000a900473ffffffffffffffffffffffffffffffffffffffff1673ffffffffffffffffffffffffffffffffffffffff167f8be0079c531659141344cd1fd0a4f28419497f9722a3daafe3b4186f6b6457e060405160405180910390a3806000806101000a81548173ffffffffffffffffffffffffffffffffffffffff021916908373ffffffffffffffffffffffffffffffffffffffff16021790555050565b6040518060a0016040528060608152602001600073ffffffffffffffffffffffffffffffffffffffff19168152602001600073ffffffffffffffffffffffffffffffffffffffff168152602001600070ffffffffffffffffffffffffffffffffff19168152602001600081525090565b828054600181600116156101000203166002900490600052602060002090601f016020900481019282601f1061269257805160ff19168380011785556126c0565b828001600101855582156126c0579182015b828111156126bf5782518255916020019190600101906126a4565b5b5090506126cd91906126f2565b5090565b60405180606001604052806000815260200160008152602001600081525090565b61271491905b808211156127105760008160009055506001016126f8565b5090565b9056fe596f7520617265206e6f7420746865206f776e6572206f66207468697320646f6d61696e2ea265627a7a723158205eba19b08440d9eb77079789bb45d96427d93ea22f4e6581a463715887828e7764736f6c63430005100032",
  "source": "//les versions de solidity que nous pouvons utiliser\r\n// entre 0.4.22 et 0.5.9\r\npragma solidity >=0.4.22 <0.6.0;\r\n//les importations  \r\n// on va utiliser ces contrats dans notre contrat principal \r\nimport \"./common/Ownable.sol\";\r\nimport \"./common/Destructible.sol\";\r\nimport \"./libs/SafeMath.sol\";\r\n\r\n// Notre contract principal DDNS :\r\ncontract DDNS is Destructible {\r\n    \r\n    /** usages */\r\n    using SafeMath for uint256;\r\n\r\n    /** les structures */\r\n    struct DomainDetails {\r\n        bytes name;\r\n        bytes12 topLevel;\r\n        address owner;\r\n        bytes15 ip;\r\n        uint expires;\r\n    }\r\n\r\n    struct Receipt {\r\n        uint amountPaidWei;\r\n        uint timestamp;\r\n        uint expires;\r\n    }\r\n\r\n    /**  Les Constantes */\r\n    uint constant public DOMAIN_NAME_COST = 1 ether;\r\n    uint constant public DOMAIN_NAME_COST_SHORT_ADDITION = 1 ether;\r\n    uint constant public DOMAIN_EXPIRATION_DATE = 365 days;\r\n    uint8 constant public DOMAIN_NAME_MIN_LENGTH = 5;\r\n    uint8 constant public DOMAIN_NAME_EXPENSIVE_LENGTH = 8;\r\n    uint8 constant public TOP_LEVEL_DOMAIN_MIN_LENGTH = 1;\r\n    bytes1 constant public BYTES_DEFAULT_VALUE = bytes1(0x00);\r\n    \r\n    /** Les Variables d'tat */\r\n    mapping (bytes32 => DomainDetails) public domainNames;\r\n    mapping(address => bytes32[]) public paymentReceipts;\r\n    mapping(bytes32 => Receipt) public receiptDetails;\r\n\r\n    /** \r\n     * Les Modificateurs\r\n     les modificateurs peuvent tre utiliss pour modifier facilement le comportement \r\n     des fonctions .Par exemple , ils peuvent vrifier automatiquement une condition avant d'excuter\r\n     la fonction . Les modificateurs sont des proprits hrites des contrats et peuvent tre remplaces\r\n     par des contrats drivs \r\n     */\r\n     // On utilise \r\n    modifier isAvailable(bytes memory domain, bytes12 topLevel) {\r\n        bytes32 domainHash = getDomainHash(domain, topLevel);\r\n        require(\r\n            domainNames[domainHash].expires < block.timestamp,\r\n            \"Domain name is not available.\"\r\n        );\r\n        _;\r\n    }\r\n\r\n    modifier collectDomainNamePayment(bytes memory domain) {\r\n        uint domainPrice = getPrice(domain);\r\n        require(\r\n            msg.value >= domainPrice, \r\n            \"Insufficient amount.\"\r\n        );\r\n        _;\r\n    }\r\n\r\n    modifier isDomainOwner(bytes memory domain, bytes12 topLevel) {\r\n        bytes32 domainHash = getDomainHash(domain, topLevel);\r\n        require(\r\n            domainNames[domainHash].owner == msg.sender,\r\n            \"You are not the owner of this domain.\"\r\n        );\r\n        _;\r\n    }\r\n\r\n    modifier isDomainNameLengthAllowed(bytes memory domain) {\r\n        require(\r\n            domain.length >= DOMAIN_NAME_MIN_LENGTH,\r\n            \"Domain name is too short.\"\r\n        );\r\n        _;\r\n    }\r\n\r\n    modifier isTopLevelLengthAllowed(bytes12 topLevel) {\r\n        require(\r\n            topLevel.length >= TOP_LEVEL_DOMAIN_MIN_LENGTH,\r\n            \"The provided TLD is too short.\"\r\n        );\r\n        _;\r\n    }\r\n\r\n    /**\r\n     *  Les Evnements \r\n     Les vnements dans Solidity fournissent une abstraction en plus d'EVM (Ethereum Virtual Machine)\r\n     Une application (Par exemple notre interface utilisateur) peut s'abonner  un vnement et couter \r\n     ces vnements.\r\n     Les vnements sont dfinis avec un certain nombre de paramtres et leur type.Lorsq'un vnement \r\n     est dclench , ses arguments sont stochs dans le journal de la transaction\r\n     */\r\n    event LogDomainNameRegistered(\r\n        uint indexed timestamp, \r\n        bytes domainName, \r\n        bytes12 topLevel\r\n    );\r\n\r\n    event LogDomainNameRenewed(\r\n        uint indexed timestamp, \r\n        bytes domainName, \r\n        bytes12 topLevel, \r\n        address indexed owner\r\n    ); \r\n\r\n    event LogDomainNameEdited(\r\n        uint indexed timestamp, \r\n        bytes domainName, \r\n        bytes12 topLevel, \r\n        bytes15 newIp\r\n    ); \r\n\r\n    event LogDomainNameTransferred(\r\n        uint indexed timestamp, \r\n        bytes domainName, \r\n        bytes12 topLevel, \r\n        address indexed owner, \r\n        address newOwner\r\n    );\r\n\r\n    event LogPurchaseChangeReturned(\r\n        uint indexed timestamp, \r\n        address indexed _owner, \r\n        uint amount\r\n    );\r\n\r\n    event LogReceipt(\r\n        uint indexed timestamp, \r\n        bytes domainName, \r\n        uint amountInWei, \r\n        uint expires\r\n    );\r\n\r\n    /**\r\n     * @dev - Constructor of the contract\r\n     */\r\n    constructor() public {\r\n        \r\n    }\r\n    \r\n    /*\r\n     * @dev - function to register domain name\r\n     * @param domain - domain name to be registered\r\n     * @param topLevel - domain top level (TLD)\r\n     * @param ip - the ip of the host\r\n     */\r\n    function register(\r\n        bytes memory domain,\r\n        bytes12 topLevel,\r\n        bytes15 ip\r\n    ) \r\n        public\r\n        payable \r\n        isDomainNameLengthAllowed(domain) \r\n        isTopLevelLengthAllowed(topLevel) \r\n        isAvailable(domain, topLevel) \r\n        collectDomainNamePayment(domain) \r\n    {\r\n        // calculate the domain hash\r\n        bytes32 domainHash = getDomainHash(domain, topLevel);\r\n\r\n        // create a new domain entry with the provided fn parameters\r\n        DomainDetails memory newDomain = DomainDetails(\r\n            {\r\n                name: domain,\r\n                topLevel: topLevel,\r\n                owner: msg.sender,\r\n                ip: ip,\r\n                expires: block.timestamp + DOMAIN_EXPIRATION_DATE\r\n            }\r\n        );\r\n\r\n        // save the domain to the storage\r\n        domainNames[domainHash] = newDomain;\r\n        \r\n        // create an receipt entry for this domain purchase\r\n        Receipt memory newReceipt = Receipt(\r\n            {\r\n                amountPaidWei: DOMAIN_NAME_COST,\r\n                timestamp: block.timestamp,\r\n                expires: block.timestamp + DOMAIN_EXPIRATION_DATE\r\n            }\r\n        );\r\n\r\n        // calculate the receipt hash/key\r\n        bytes32 receiptKey = getReceiptKey(domain, topLevel);\r\n        \r\n        // save the receipt key for this `msg.sender` in storage\r\n        paymentReceipts[msg.sender].push(receiptKey);\r\n        \r\n        // save the receipt entry/details in storage\r\n        receiptDetails[receiptKey] = newReceipt;\r\n\r\n        // log receipt issuance\r\n        emit LogReceipt(\r\n            block.timestamp, \r\n            domain, \r\n            DOMAIN_NAME_COST, \r\n            block.timestamp + DOMAIN_EXPIRATION_DATE\r\n        );\r\n    \r\n        // log domain name registered\r\n        emit LogDomainNameRegistered(\r\n            block.timestamp, \r\n            domain, \r\n            topLevel\r\n        );\r\n    }\r\n\r\n    /*\r\n     * @dev - function to extend domain expiration date\r\n     * @param domain - domain name to be registered\r\n     * @param topLevel - top level\r\n     */\r\n    function renewDomainName(\r\n        bytes memory domain,\r\n        bytes12 topLevel\r\n    ) \r\n        public \r\n        payable \r\n        isDomainOwner(domain, topLevel)\r\n        collectDomainNamePayment(domain)\r\n    {\r\n        // calculate the domain hash\r\n        bytes32 domainHash = getDomainHash(domain, topLevel);\r\n        \r\n        // add 365 days (1 year) to the domain expiration date\r\n        domainNames[domainHash].expires += 365 days;\r\n        \r\n        // create a receipt entity\r\n        Receipt memory newReceipt = Receipt(\r\n            {\r\n                amountPaidWei: DOMAIN_NAME_COST,\r\n                timestamp: block.timestamp,\r\n                expires: block.timestamp + DOMAIN_EXPIRATION_DATE\r\n            }\r\n        );\r\n\r\n        // calculate the receipt key for this domain\r\n        bytes32 receiptKey = getReceiptKey(domain, topLevel);\r\n        \r\n        // save the receipt id for this msg.sender\r\n        paymentReceipts[msg.sender].push(receiptKey);\r\n\r\n        // store the receipt details in storage\r\n        receiptDetails[receiptKey] = newReceipt;\r\n\r\n        // log domain name Renewed\r\n        emit LogDomainNameRenewed(\r\n            block.timestamp,\r\n            domain,\r\n            topLevel,\r\n            msg.sender\r\n        );\r\n\r\n        // log receipt issuance\r\n        emit LogReceipt(\r\n            block.timestamp, \r\n            domain, \r\n            DOMAIN_NAME_COST, \r\n            block.timestamp + DOMAIN_EXPIRATION_DATE\r\n        );\r\n    }\r\n    \r\n    /*\r\n     * @dev - function to edit domain name\r\n     * @param domain - the domain name to be editted\r\n     * @param topLevel - tld of the domain\r\n     * @param newIp - the new ip for the domain\r\n     */\r\n    function edit(\r\n        bytes memory domain,\r\n        bytes12 topLevel,\r\n        bytes15 newIp\r\n    ) \r\n        public \r\n        isDomainOwner(domain, topLevel) \r\n    {\r\n        // calculate the domain hash - unique id\r\n        bytes32 domainHash = getDomainHash(domain, topLevel);\r\n\r\n        // update the new ip        \r\n        domainNames[domainHash].ip = newIp;\r\n\r\n        // log change\r\n        emit LogDomainNameEdited(block.timestamp, domain, topLevel, newIp);\r\n    }\r\n    \r\n    /*\r\n     * @dev - Transfer domain ownership\r\n     * @param domain - name of the domain\r\n     * @param topLevel - tld of the domain\r\n     * @param newOwner - address of the new owner\r\n     */\r\n    function transferDomain(\r\n        bytes memory domain,\r\n        bytes12 topLevel,\r\n        address newOwner\r\n    ) \r\n        public \r\n        isDomainOwner(domain, topLevel)\r\n    {\r\n        // prevent assigning domain ownership to the 0x0 address\r\n        require(newOwner != address(0));\r\n        \r\n        // calculate the hash of the current domain\r\n        bytes32 domainHash = getDomainHash(domain, topLevel);\r\n        \r\n        // assign the new owner of the domain\r\n        domainNames[domainHash].owner = newOwner;\r\n        \r\n        // log the transfer of ownership\r\n        emit LogDomainNameTransferred(\r\n            block.timestamp,\r\n            domain, topLevel,\r\n            msg.sender,\r\n            newOwner\r\n        );\r\n    }\r\n    \r\n    /*\r\n     * @dev - Get ip of domain\r\n     * @param domain\r\n     * @param topLevel\r\n     */\r\n    function getIP(\r\n        bytes memory domain,\r\n        bytes12 topLevel\r\n    ) \r\n        public \r\n        view \r\n        returns (bytes15)\r\n    {\r\n        // calculate the hash of the domain\r\n        bytes32 domainHash = getDomainHash(domain, topLevel);\r\n        \r\n        // return the ip property of the domain from storage\r\n        return domainNames[domainHash].ip;\r\n    }\r\n    \r\n    /*\r\n     * @dev - Get price of domain\r\n     * @param domain\r\n     */\r\n    function getPrice(\r\n        bytes memory domain\r\n    )\r\n        public\r\n        pure\r\n        returns (uint) \r\n    {\r\n        // check if the domain name fits in the expensive or cheap categroy\r\n        if (domain.length < DOMAIN_NAME_EXPENSIVE_LENGTH) {\r\n            // if the domain is too short - its more expensive\r\n            return DOMAIN_NAME_COST + DOMAIN_NAME_COST_SHORT_ADDITION;\r\n        }\r\n\r\n        // otherwise return the regular price\r\n        return DOMAIN_NAME_COST;\r\n    }\r\n    \r\n    /**\r\n     * @dev - Get receipt list for the msg.sender\r\n     */\r\n    function getReceiptList() public view returns (bytes32[] memory) {\r\n        return paymentReceipts[msg.sender];\r\n    }\r\n    \r\n    /*\r\n     * @dev - Get single receipt\r\n     * @param receiptKey\r\n     */\r\n    function getReceipt(bytes32 receiptKey) public view returns (uint, uint, uint) {\r\n        return (receiptDetails[receiptKey].amountPaidWei,\r\n                receiptDetails[receiptKey].timestamp,\r\n                receiptDetails[receiptKey].expires);\r\n    }\r\n\r\n    /*\r\n     * @dev - Get (domain name + top level) hash used for unique identifier \r\n     * @param domain\r\n     * @param topLevel\r\n     * @return domainHash\r\n     */\r\n    function getDomainHash(bytes memory domain, bytes12 topLevel) public pure returns(bytes32) {\r\n        // @dev - tightly pack parameters in struct for keccak256\r\n        return keccak256(abi.encodePacked(domain, topLevel));\r\n    } \r\n\r\n    /*\r\n     * @dev - Get recepit key hash - unique identifier\r\n     * @param domain\r\n     * @param topLevel\r\n     * @return receiptKey\r\n     */\r\n    function getReceiptKey(bytes memory domain, bytes12 topLevel) public view returns(bytes32) {\r\n        // @dev - tightly pack parameters in struct for keccak256\r\n        return keccak256(abi.encodePacked(domain, topLevel, msg.sender, block.timestamp));\r\n    } \r\n\r\n    /**\r\n     * @dev - Withdraw function \r\n     */\r\n    function withdraw() public onlyOwner {\r\n        msg.sender.transfer(address(this).balance);\r\n    }\r\n}",
  "sourcePath": "D:\\PFA\\DDNS\\contracts\\DDNS.sol",
  "compiler": {
    "name": "solc",
    "version": "0.5.16+commit.9c3226ce.Emscripten.clang"
  },
  "schemaVersion": "3.0.23",
  "updatedAt": "2020-06-10T21:47:21.524Z",
  "networkType": "ethereum",
  "devdoc": {
    "methods": {
      "constructor": {
        "details": "- Constructor of the contract"
      },
      "destroy(address)": {
        "details": "Transfers the current balance to the owner and terminates the contract."
      },
      "getReceiptList()": {
        "details": "- Get receipt list for the msg.sender"
      },
      "isOwner()": {
        "return": "true if `msg.sender` is the owner of the contract."
      },
      "owner()": {
        "return": "the address of the owner."
      },
      "renounceOwnership()": {
        "details": "Allows the current owner to relinquish control of the contract."
      },
      "transferOwnership(address)": {
        "details": "Allows the current owner to transfer control of the contract to a newOwner.",
        "params": {
          "newOwner": "The address to transfer ownership to."
        }
      },
      "withdraw()": {
        "details": "- Withdraw function "
      }
    }
  },
  "userdoc": {
    "methods": {
      "renounceOwnership()": {
        "notice": "Renouncing to ownership will leave the contract without an owner. It will not be possible to call the functions with the `onlyOwner` modifier anymore."
      }
    }
  }
}