{
  "contractName": "Destructible",
  "abi": [
    {
      "anonymous": false,
      "inputs": [
        {
          "indexed": true,
          "internalType": "address",
          "name": "previousOwner",
          "type": "address"
        }
      ],
      "name": "OwnershipRenounced",
      "type": "event"
    },
    {
      "anonymous": false,
      "inputs": [
        {
          "indexed": true,
          "internalType": "address",
          "name": "previousOwner",
          "type": "address"
        },
        {
          "indexed": true,
          "internalType": "address",
          "name": "newOwner",
          "type": "address"
        }
      ],
      "name": "OwnershipTransferred",
      "type": "event"
    },
    {
      "constant": true,
      "inputs": [],
      "name": "isOwner",
      "outputs": [
        {
          "internalType": "bool",
          "name": "",
          "type": "bool"
        }
      ],
      "payable": false,
      "stateMutability": "view",
      "type": "function"
    },
    {
      "constant": true,
      "inputs": [],
      "name": "owner",
      "outputs": [
        {
          "internalType": "address",
          "name": "",
          "type": "address"
        }
      ],
      "payable": false,
      "stateMutability": "view",
      "type": "function"
    },
    {
      "constant": false,
      "inputs": [],
      "name": "renounceOwnership",
      "outputs": [],
      "payable": false,
      "stateMutability": "nonpayable",
      "type": "function"
    },
    {
      "constant": false,
      "inputs": [
        {
          "internalType": "address",
          "name": "newOwner",
          "type": "address"
        }
      ],
      "name": "transferOwnership",
      "outputs": [],
      "payable": false,
      "stateMutability": "nonpayable",
      "type": "function"
    },
    {
      "constant": false,
      "inputs": [
        {
          "internalType": "address payable",
          "name": "_owner",
          "type": "address"
        }
      ],
      "name": "destroy",
      "outputs": [],
      "payable": false,
      "stateMutability": "nonpayable",
      "type": "function"
    },
    {
      "constant": false,
      "inputs": [
        {
          "internalType": "address payable",
          "name": "_recipient",
          "type": "address"
        }
      ],
      "name": "destroyAndSend",
      "outputs": [],
      "payable": false,
      "stateMutability": "nonpayable",
      "type": "function"
    }
  ],
  "bytecode": "0x6080604052336000806101000a81548173ffffffffffffffffffffffffffffffffffffffff021916908373ffffffffffffffffffffffffffffffffffffffff16021790555061047e806100536000396000f3fe608060405234801561001057600080fd5b50600436106100615760003560e01c8062f55d9d14610066578063715018a6146100aa5780638da5cb5b146100b45780638f32d59b146100fe578063f2fde38b14610120578063f5074f4114610164575b600080fd5b6100a86004803603602081101561007c57600080fd5b81019080803573ffffffffffffffffffffffffffffffffffffffff1690602001909291905050506101a8565b005b6100b26101d2565b005b6100bc61028a565b604051808273ffffffffffffffffffffffffffffffffffffffff1673ffffffffffffffffffffffffffffffffffffffff16815260200191505060405180910390f35b6101066102b3565b604051808215151515815260200191505060405180910390f35b6101626004803603602081101561013657600080fd5b81019080803573ffffffffffffffffffffffffffffffffffffffff16906020019092919050505061030a565b005b6101a66004803603602081101561017a57600080fd5b81019080803573ffffffffffffffffffffffffffffffffffffffff169060200190929190505050610327565b005b6101b06102b3565b6101b957600080fd5b8073ffffffffffffffffffffffffffffffffffffffff16ff5b6101da6102b3565b6101e357600080fd5b6000809054906101000a900473ffffffffffffffffffffffffffffffffffffffff1673ffffffffffffffffffffffffffffffffffffffff167ff8df31144d9c2f0f6b59d69b8b98abd5459d07f2742c4df920b25aae33c6482060405160405180910390a260008060006101000a81548173ffffffffffffffffffffffffffffffffffffffff021916908373ffffffffffffffffffffffffffffffffffffffff160217905550565b60008060009054906101000a900473ffffffffffffffffffffffffffffffffffffffff16905090565b60008060009054906101000a900473ffffffffffffffffffffffffffffffffffffffff1673ffffffffffffffffffffffffffffffffffffffff163373ffffffffffffffffffffffffffffffffffffffff1614905090565b6103126102b3565b61031b57600080fd5b61032481610351565b50565b61032f6102b3565b61033857600080fd5b8073ffffffffffffffffffffffffffffffffffffffff16ff5b600073ffffffffffffffffffffffffffffffffffffffff168173ffffffffffffffffffffffffffffffffffffffff16141561038b57600080fd5b8073ffffffffffffffffffffffffffffffffffffffff166000809054906101000a900473ffffffffffffffffffffffffffffffffffffffff1673ffffffffffffffffffffffffffffffffffffffff167f8be0079c531659141344cd1fd0a4f28419497f9722a3daafe3b4186f6b6457e060405160405180910390a3806000806101000a81548173ffffffffffffffffffffffffffffffffffffffff021916908373ffffffffffffffffffffffffffffffffffffffff1602179055505056fea265627a7a723158202010085c48fe98eb26abadd46aa9821957280fec28eb34cae6cd33d2c43889e464736f6c63430005100032",
  "source": "/**\r\nNous avons utilisé openzeppelin pour pouvoir utiliser des contracts \r\nqui ont passé plusieurs audits de sécurité (Destructible.sol,Ownable.sol,SafeMath.sol)\r\nMais, nous avons changé quelques lignes de code pour optimiser notre programme \r\net pour s'adapter aux nouvelles versions de truffle et solidity\r\n*/\r\npragma solidity >=0.4.22 <0.6.0;\r\n\r\nimport \"./Ownable.sol\";\r\n\r\n\r\n/**\r\n * @title Destructible\r\n * @dev Base contract that can be destroyed by owner. All funds in contract will be sent to the owner.\r\n */\r\ncontract Destructible is Ownable {\r\n  /**\r\n   * @dev Transfers the current balance to the owner and terminates the contract.\r\n   */\r\n    function destroy(address payable _owner) public onlyOwner {\r\n        selfdestruct(_owner);\r\n    }\r\n\r\n    function destroyAndSend(address payable _recipient) public onlyOwner {\r\n        selfdestruct(_recipient);\r\n    }\r\n}",
  "sourcePath": "D:\\PFA\\DDNS\\contracts\\common\\Destructible.sol",
  "compiler": {
    "name": "solc",
    "version": "0.5.16+commit.9c3226ce.Emscripten.clang"
  },
  "schemaVersion": "3.0.23",
  "updatedAt": "2020-06-10T21:47:20.416Z",
  "devdoc": {
    "details": "Base contract that can be destroyed by owner. All funds in contract will be sent to the owner.",
    "methods": {
      "destroy(address)": {
        "details": "Transfers the current balance to the owner and terminates the contract."
      },
      "isOwner()": {
        "return": "true if `msg.sender` is the owner of the contract."
      },
      "owner()": {
        "return": "the address of the owner."
      },
      "renounceOwnership()": {
        "details": "Allows the current owner to relinquish control of the contract."
      },
      "transferOwnership(address)": {
        "details": "Allows the current owner to transfer control of the contract to a newOwner.",
        "params": {
          "newOwner": "The address to transfer ownership to."
        }
      }
    },
    "title": "Destructible"
  },
  "userdoc": {
    "methods": {
      "renounceOwnership()": {
        "notice": "Renouncing to ownership will leave the contract without an owner. It will not be possible to call the functions with the `onlyOwner` modifier anymore."
      }
    }
  }
}